:1000000000000320D1010000792C0000312C0000F9
:10001000312C0000312C0000312C0000312C00006C
:10002000312C0000312C0000312C0000792C000014
:10003000792C0000312C0000DD460000E147000073
:10004000792C0000792C0000792C0000792C00001C
:10005000792C0000792C0000792C0000792C00000C
:10006000792C0000792C0000792C0000792C0000FC
:10007000792C0000792C0000792C0000792C0000EC
:10008000792C0000792C0000792C0000792C0000DC
:10009000792C0000792C0000792C0000792C0000CC
:1000A000792C0000792C0000792C0000792C0000BC
:1000B000792C0000792C0000792C00008149000087
:1000C000792C0000AD4A0000792C0000D94B0000CB
:1000D000792C0000D14C0000792C0000792C000014
:1000E000792C0000792C0000792C0000792C00007C
:1000F000792C0000792C0000792C0000792C00006C
:10010000792C0000792C0000792C0000792C00005B
:10011000792C0000DD350000792C0000792C0000DE
:10012000792C0000792C0000792C0000792C00003B
:10013000792C0000792C0000792C0000792C00002B
:10014000792C0000792C0000C94D0000792C0000AA
:10015000792C0000792C0000792C0000792C00000B
:10016000792C0000792C0000792C0000792C0000FB
:10017000792C0000792C0000792C0000792C0000EB
:10018000792C0000792C0000792C0000792C0000DB
:10019000792C0000792C0000C14E0000792C000061
:1001A000792C0000792C0000792C0000792C0000BB
:1001B000792C0000792C0000792C0000792C0000AB
:1001C000792C0000792C0000792C0000792C00009B
:1001D0005C4B4CF2205210B51A804DF628121A8052
:1001E00000BF00BF02F04CFD574B4FF030621A6069
:1001F000564A9A60564ADA60564B4FF470021A60BB
:10020000554B564A1A60564B1A78110703D51A787F
:1002100042F008021A70534B5349AA221A70534AEB
:10022000534B8B4204D252F8040F43F8040BF8E707
:10023000504B514900228B4202D243F8042BFAE77B
:100240004E494F4A002352F8230041F8230001335E
:10025000742BF8D14B4B4C4A802103F8011B93427D
:10026000FBD14A4B454A1A60494B8A221A70A3F5C2
:10027000805324225A70A0221A709A799207FCD5D2
:100280009A79D406FCD4434A937903F00C03082BE3
:10029000FAD1414B60221A7002331A78802AFCD1BD
:1002A0003C4B01221A715D225A719A799006FCD555
:1002B0009979384A4906FBD5384B394919600021EC
:1002C000596020231370937903F00C030C2BFAD19F
:1002D000344B354A1A60354A354C136813F4807331
:1002E00003D123604FF4A8531360324B324A1A6093
:1002F00000225A60072243F8042C304AC3F80C2D20
:1003000062B602F0DBFF2368DA0705D52C4802F05D
:1003100091FD2C4B2C4A1A602C4B1B785B0609D59F
:10032000284C294B22689A4204D1254802F082FDCC
:100330000023236004F066FF02F0A8FC02F0D6FB65
:10034000FEE700BF0E20054030800440823F0400DD
:100350000100002B88ED00E0002008E0030000858C
:1003600002D0074000E00740E811FF1F4C73000077
:100370003007FF1FE811FF1F3C19FF1F0002FF1F7E
:100380000000000000E400E064E400E008ED00E0AC
:10039000005006400040064001E007404480044011
:1003A0000000060204800440C010070010D0034083
:1003B00014D0034014E000E01FBF02000000202022
:1003C000761C525E1CE00340A5C3945A00F007401F
:1003D000FFFFFFFFFFFFFFFFFFFFFFFFFFFFFFFF2D
:1003E000FFFFFFFFFFFFFFFFFFFFFFFFFFFFFFFF1D
:1003F000FFFFFFFFFFFFFFFFFFFFFFFFFFFFFFFF0D
:10040000FFFFFFFFFFFFFFFFFFFFFFFFDEF9FFFF23
:1004100010B5054C237833B9044B13B10448AFF33E
:1004200000800123237010BDE811FF1F00000000B1
:1004300048730000084B10B51BB108490848AFF3DA
:1004400000800848036803B910BD074B002BFBD0A0
:10045000BDE81040184700BF00000000EC11FF1F6E
:1004600048730000E811FF1F0000000038B50C20A1
:1004700002F092FE0A4D0B4A0B490C4C1378002BEC
:10048000FCD00B78DB07F9D52B6820681B1A0E2BE4
:10049000F4D9FE210648BDE8384000F017BA00BF85
:1004A000D014FF1FB415FF1FCC15FF1F3419FF1FF9
:1004B0005412FF1F2DE9F041DFF86080114C124FFC
:1004C000124E134D404600F0DBF9224611494046DA
:1004D00004F0AAFD0021384602F0DAF9224631463E
:1004E000384604F0A1FD0021284602F0D1F9224649
:1004F0003146284604F098FD02F06AFE064B18606B
:10050000BDE8F0813007FF1F4012FF1F11280000D7
:100510002C12FF1F9D0800000412FF1F0C12FF1F6A
:10052000F0B589B008AE1323794A7A497A4D684606
:1005300000F078FA16F8141D9DF80420029B2A7129
:10054000AB60297305F10D0332461A3512F8011F0D
:1005500003F8011BAB42704CF8D1079BE36168467E
:1005600000F09CF96D496E4802F0D0F96B496D4876
:1005700002F0CCF90123664A6649684600F052FA57
:100580009DF804209DF80C300299227123733246A5
:10059000A16004F10D0312F8011F03F8011BAB4227
:1005A0005D4CF8D1079BE361684600F077F920467F
:1005B00000F084F9002800F0A1805B4D2E465648DB
:1005C00000F0D8F8002800F09680534800F0F0F8CA
:1005D000C1B2534802F0A4F95149524802F0E6F979
:1005E0002C21684602F076F969464D4802F0F8F988
:1005F0000446684602F00CF9002CE0D04B4949480B
:1006000002F0FCF900286CD14949464802F0F6F99D
:10061000002866D14749434802F0F0F9002860D12C
:100620004249404802F0EAF900285AD142493D487F
:1006300002F0E4F90446002853D13A4802F022FAC5
:100640000146384802F05AF93C49684602F020F960
:100650006946344802F0E8F901220146314802F0C7
:10066000F5F9684602F0D4F82E4802F039FA344A17
:100670001368002B44D0334B334F1B681460386031
:10068000324CC3EB033384FB0321DB17C3EB212183
:10069000422002F0E1FB3B68C3EB033384FB032100
:1006A000DB17C3EB2121432002F0D6FB3B6828482F
:1006B000C3EB033384FB0321DB17C3EB212102F0DF
:1006C0009FF8234802F04CF802F082FD2B68C01A14
:1006D0000228F9D9033311491248336002F016F9A0
:1006E0006DE70E490F4802F011F90B4800F042F88F
:1006F00000287FF46AAF084800F0D2F809B0F0BDD6
:10070000104B114F1860012103461160B8E700BF7C
:10071000606E00005412FF1F0C12FF1F7C6E000061
:100720004012FF1F2C12FF1F0412FF1F706E0000EB
:10073000806E00008C6E0000986E0000946E0000C9
:100740005012FF1F0812FF1F3C12FF1F67666666EC
:100750004007FF1F00207047704700BF10B582B0F0
:1007600002AB026803F8011D546819460122A04734
:1007700002B010BDC06938B18369C06847F6FF7226
:10078000181A904228BF1046704700BFC36910B5C1
:1007900004463BB100201871E06901F059FCE3699F
:1007A0001B791BB101232371002010BD10BD00BFB8
:1007B000C06978B100B583B001220DF1070101F0E5
:1007C00019FA01280CBF9DF807004FF0FF3003B065
:1007D0005DF804FB4FF0FF30704700BFC369C3B141
:1007E00010B582B00446012218460DF1070101F050
:1007F00001FA012803D04FF0FF3002B010BDE069CC
:100800009DF80740C168013901F0B0FA204602B0F6
:1008100010BD1846704700BFC06908B101F0D8BAD2
:10082000704700BF2DE9F04105464FF47A73134835
:10083000AB60002328602B712B7324200C4690465C
:1008400004F02CFDE861B0B1064604F1200E2068EA
:100850006168A268E36837460FC7103474453E46A6
:10086000F5D12068386041460C2205F10D0005F0F5
:1008700095FD00236B762846BDE8F081AC6E000044
:100880004FF47A720449826000220160027102739F
:10089000C2614273704700BFAC6E0000704700BF7A
:1008A000C36953B110B50446184601F02BF9E0694D
:1008B00004F0FCFC0023E36110BD7047C06918B16F
:1008C0008079003018BF0120704700BFFE2938B57D
:1008D000054617D00A46012100F002FE03460BB977
:1008E000002038BD2C1D20460122294601F0A0FE23
:1008F00098B1214605F12C0001F054F9003018BFE1
:10090000012038BD017000F005FA044600F0F0F94E
:10091000B4FA84F35B09A870E1E702462946204651
:1009200001F086FE0028E4D1002038BD2DE9F04F0B
:1009300099B04FF00008DFF8E8A08DF81C808146E0
:10094000043106A8934601938DF81E808DF84080EF
:100950008DF84280CDF818A0CDF83CA001F022F926
:1009600006AE5D460FAF2F21284605F067FA441BFF
:10097000E4B2294608B32B782F2B02A81BD00C2CED
:1009800028BF0C24224605F009FD18AB2344384645
:1009900003F8588C01F0B6F8012302AA3146384614
:1009A00001F04AFB88B3304601F0ACF833462544E9
:1009B0003E461F46D7E70135D5E701983179727970
:1009C000B379B468377DCBEB05050560F068356910
:1009D00089F8041089F80520B16989F80630F269B0
:1009E000336AC9F80C004846C9F800A0C9F80840A5
:1009F000C9F8105089F81470C9F81810C9F81C20EB
:100A0000C9F8203019B0BDE8F08F89F8040089F8E2
:100A100006004846C9F800A019B0BDE8F08F00BF35
:100A2000D46E0000F0B59DB005461F4601A86B4688
:100A30001446FFF77BFF009AA35C1444002B42D0BE
:100A40009DF80A202F4E0A9600238DF82C308DF841
:100A50002E30002A31D00AA83B46224601A901F0D7
:100A6000EBFA50B301A801F04DF817F0060F43D18F
:100A70009DF82C700C9B9DF82DE0139622469DF856
:100A80002E408DF850708DF8524015930D990E98A8
:100A90009DF83C70109E119C129B8DF851E01691B0
:100AA000179013A928468DF8607019961A941B9315
:100AB000FFF7B8FE28461DB0F0BD2846FFF7E0FE60
:100AC00028461DB0F0BD9DF808700E4E9DF80940F7
:100AD0009DF80A30039A8DF8507013968DF85140A6
:100AE0008DF852301592049905989DF81870079E5C
:100AF000089C099B044AD2E70AA8109901F036F92C
:100B0000B6E700BFD46E0000C86E0000064B074A6F
:100B1000DA620221002259609A7083F8242083F857
:100B2000302083F8322070475412FF1FD46E00002B
:100B30004FF47A72264B02FB00F09842F0B440D892
:100B4000244D0821012252001301B5FBF3F3984212
:100B5000204C32D20139F6D1B4FBF2F453081F0213
:100B6000A04232D21B4E51000123B6FBF1F4A04249
:100B700003F1010511441ED2102D2B46F5D1F022B0
:100B8000154C1649236823F008032360206820F4DD
:100B90007F2020F47F6040F4602040EA0703134385
:100BA00023600B681B07FCD50B4A136843F008034E
:100BB0001360F0BC70471A01E2E7B4FBF2F4D7010E
:100BC000CEE7044C00270122CAE70022D8E700BF85
:100BD0004FA9AB000095BA0A2C100B4024100B4013
:100BE0002049214A0B6843F080030B6011461368CB
:100BF000DB07FCD40B689B07F9D41C4B30B44FF0D7
:100C00008072184D186000E0A2B12968184B154C8D
:100C10000B40013A002BF7D062B1012B0AD12368B7
:100C200013F0800F23680FD043F0011323600320DB
:100C300030BC70470B4A136843F4702343F0010340
:100C40001360012030BC704713F48030236804D057
:100C500043F0011323600520F4E743F00103236010
:100C6000F0E700BF30100B4024100B400C100B407D
:100C700001000E0070B50D4D0D480E4E00232B6087
:100C8000FFF7AEFF40F2E73403463268520701D562
:100C900007480BB1184670BD2B60FFF7A1FF013C60
:100CA0000346F2D1002808BF052070BD08100B4094
:100CB0000000DB0C24100B4070B5094C00230546E6
:100CC00023600848FFF78CFF00B170BD064E07484F
:100CD00033682560FFF784FF0028F6D1336870BDC4
:100CE00008100B4000001A3710100B4000000229BA
:100CF000074B1A784AB99A782AB15B78002B0CBF57
:100D0000022003207047012070470020704700BF79
:100D1000A812FF1FAA4AAB491368AB4843F04063CF
:100D20002DE9F04713600B68DFF804E3A74FA84EE6
:100D3000A84DA94C02F5232243F400330B6002F6C0
:100D40002C0240F203130021CEF800303B603160EA
:100D50002B6023600360136843F0807343F4004307
:100D600013601368DD01FCD44FF4C870FFF7E0FE98
:100D70009A4A13689C07FCD1944FDFF8B4E2944977
:100D8000954D914C964A934E964840F24343CEF887
:100D900000303B604FF488670F604FF4813133605F
:100DA0002B602360116003688F49904D23F0380356
:100DB00004F5C82443F02803036020340B680B605B
:100DC000283240F2DC512560136843F00063136061
:100DD00013681801FCD40139F6D1834A7F4813689F
:100DE00043F0800313600368DA0308D4804B0220C9
:100DF00059709970187059609960BDE8F0877C4C03
:100E00007C4B7D4E21706170A17008461960316085
:100E10006160A160FFF7E4FE70B9784D78482B68F7
:100E20004FF4D5733360FFF7DBFE48B92B682B68AE
:100E3000B3F5D57F00F0C18001202070BDE8F087B8
:100E40000528F9D10020FFF737FF0028F4D16B4BBC
:100E50001A6812F4401F19D06278DFF8D881694F00
:100E6000002A05461E4608BF4FF440173846FFF7D4
:100E700023FF0135614B002840F0F1803268002AE1
:100E8000C0F2E4804545F1D1002363705A4E5E48BC
:100E900000233360FFF7A4FE03460028CCD1574D52
:100EA0005A482A683360FFF79BFE0028C4D12B689C
:100EB0002B6857484E4D1B0C1B0433606360FFF7D3
:100EC0008FFE0028B8D1534B53491A68120EEA70AE
:100ED0000A6812F4400F40F0AF8019684F481B6851
:100EE000026800689B0203F4406343EA9253C0F334
:100EF000C2105A1CC1F30321831C093902FA03F3FF
:100F00008B40AB603C4E636833604548384FFFF719
:100F100067FE002890D1394D42482B684FF400738A
:100F20003360FFF75DFE002886D17B682A683E4863
:100F30003360FFF755FE00287FF47EAF02232A6856
:100F40003A483360FFF74CFE00287FF475AF254B1D
:100F50002A681A68DFF8D8A0DFF87090DFF8708090
:100F6000194C22F006021A601A68A6F5C726A6F2E6
:100F7000FC76A5F5C82542F002021A6040F2031380
:100F8000CAF80030C9F80030C8F80000336046F2F3
:100F9000A8102B602360FFF7CBFD40F243434FF4D2
:100FA0008862CAF80030C9F80030C8F80020336001
:100FB0002B6023603878BDE8F0870123637041E738
:100FC00000D800403080044014D0044004D00440D5
:100FD00008D004400CD0044010D0044024100B4032
:100FE00004100B4028100B4030100B40BB007F1149
:100FF000A812FF1F38100B4008100B4010100B40B8
:1010000000001A08000030400000090200001A0326
:101010000000090918100B401C100B4014100B4065
:1010200000001B0700001A1000001A3700001A0603
:1010300000D00440A086010001220A4BAA701B6860
:10104000C3F3152313449B02AB605BE7064A95424A
:101050003FF41AAF1B685B007FF516AF16E701205F
:10106000BDE8F08714100B40A0860100F8B5384B9E
:101070001A780AB10320F8BD5B78064603B9490225
:10108000344D354C354B36484FF6FF774FF48132AF
:101090002F6021601A60FFF7A3FD0028EBD1314BD0
:1010A00031491B681C3406F1400206F510702B68AC
:1010B000284F43F0200613F4E00F2E603ED1236842
:1010C0001E05FCD50B6842F8403C0B6842F83C3CDE
:1010D0000B6842F8383C0B6842F8343C0B6842F825
:1010E000303C0B6842F82C3C0B6842F8283C0B68FB
:1010F00042F8243C0B6842F8203C0B6842F81C3C48
:101100000B6842F8183C0B6842F8143C0B6842F834
:10111000103C0B6842F80C3C0B6842F8083C0B682A
:1011200042F8043C40328242C1D1002009490B6898
:10113000084A9B07FBD50D4B1360F8BD43F4E00351
:1011400043F020033B60FFF795FD0120EEE700BF71
:10115000A812FF1F30100B4008100B4004100B406A
:1011600010003A1110100B4020100B40220000011B
:10117000F8B52B4B1A780AB10320F8BD5B7804460A
:1011800003B94902274D28482A68284B2A604FF4A2
:101190008132016026481A60FFF722FD0028ECD159
:1011A000244B254E1B68294604F500770B681D4A21
:1011B000D806FBD52B6813F4E00F1AD104F14002D6
:1011C00054F8043B3360A242FAD10B68DFF854E0D4
:1011D00043F010030B600B6813F4E00013D1974247
:1011E000E4D110490B680F4A9B07FBD5134B1360E2
:1011F000F8BD136843F4E00343F010031360FFF7F6
:1012000039FD0120EDE7DEF8003043F4E00343F060
:101210001003CEF80030FFF72DFD0120E1E700BFFD
:10122000A812FF1F30100B4008100B4004100B4099
:1012300000003A1810100B4020100B401200000163
:10124000052822D8DFE800F003030F151B09124B15
:10125000124A1A60124803F087BF0F4B114A1A60F6
:101260000F4803F081BF0C4B0F4A1A600C4803F083
:101270007BBF094B0D4A1A60094803F075BF064B46
:101280000B4A1A60064803F06FBF034B094A1A6005
:10129000034803F069BF00BFB812FF1F000001B888
:1012A000FC07FF1F0430003801100038032000380D
:1012B000010002380650013810B50121007801F014
:1012C0007BFF114A1378C3B11049CB7A002418462A
:1012D000147093B1DA0703D50D4AC8691060184637
:1012E0009C0703D50B4B0A6AC87A1A60420705D4DB
:1012F000030702D5084B8A6A1A6010BD074B4A6A79
:10130000C87A1A60F4E700BFBC12FF1FFC07FF1F7A
:1013100000E100E004E100E00CE100E008E100E0B1
:10132000234B1A781AB10078002101F045BF70B440
:10133000204A2149D47A096801251D70002C26D045
:1013400072B6D47AE607234606D51C4DD3682E68BC
:101350003340D3612B602346A50706D5184D146989
:101360002E68D37A344014622C605C0706D5154D84
:1013700054692E68D37A344054622C601B0705D51B
:10138000114C936925682B409362236062B6136801
:10139000DA688A4207D00D4C1C600D4AD96041F0D2
:1013A00080441C611A600078002170BC01F004BF09
:1013B000BC12FF1FFC07FF1FB812FF1F80E100E0F7
:1013C00084E100E088E100E08CE100E001403F00C2
:1013D00000003F80F0B41248124A036882B01646FB
:1013E0000093009F4FF00045FF24136843F480638F
:1013F0001360D5625463D36A002BFCDAB36BDBB2A3
:10140000FF2B09D003680193019BDB1B8B42ECD3BC
:10141000002002B0F0BC7047012002B0F0BC704761
:10142000D014FF1F00C00240F8B50D464FF496716E
:1014300016460446FFF7CEFF284B1A684FF00040CF
:1014400042F4806245F040011A60D8621A4659633E
:10145000D36A002BFCDA214918204FF000470A68B4
:1014600026FA00F342F48062DBB20A60CF624B637B
:10147000CB6A002BFCDA083810F1080FEFD155B316
:10148000082D0CBF8721FF21144B1A684FF0004034
:1014900042F480621A60D8621A465963D36A002BFC
:1014A000FCDA0E4A002716464FF00045FF2113686C
:1014B00043F480631360D5625163D36A002BFCDA76
:1014C000B36BD8B21B06607000D4F8BD0137B7F516
:1014D000807FECD1F8BD9521D6E700BF00C0024067
:1014E0002DE9F04300239D4E027085B08370336870
:1014F00001930546884610460121019F01F05CFEDC
:101500002878012101F05EFE2878012101F054FEC7
:10151000934A136843F4805313600620FFF790FE4C
:10152000DFF870E28F4B9EF80BC01A68BCF1000F19
:101530002CD072B69EF80B10C8070B4608D58A4807
:10154000DEF80C3004682340CEF81C3003600B46F4
:101550008C0709D58548DEF8101004689EF80B301A
:101560002140CEF820100160580709D58048DEF8E8
:10157000141004689EF80B302140CEF8241001604E
:10158000190700F1AB8062B69EF80BC0DEF80030A0
:10159000D968914207D0774818607749DA6042F0FD
:1015A000804018611960754A0A244FF00040FF21FD
:1015B000136843F480631360D0625163D36A002BD5
:1015C000FCDA013C14F0FF04F2D1BCF1000F21D091
:1015D0001CF0010F05D06A4BDEF81C209EF80BC0F2
:1015E0001A601CF0020F05D0664BDEF820209EF832
:1015F0000BC01A601CF0040F05D0634BDEF82420EA
:101600009EF80BC01A601CF0080F03D05F4BDEF889
:1016100028201A602846FFF783FE06E0336802930D
:10162000029BDB1BB3F5FA6F51D800221146284606
:10163000FFF7FAFE012881466870EFD14FF4D572AA
:1016400008212846FFF7F0FE430726D585F80290CB
:101650004FF0000906E033680393039BDB1BB3F5EF
:10166000FA6F34D8002237212846FFF7DDFE4A46BC
:1016700029212846FFF7D8FE68700028EBD1AB7807
:10168000022B39D02846FFF717FE4046FFF7D8FD5A
:101690000124204605B0BDE8F083384A0421944671
:1016A0004FF0004EFF20136843F480631360C2F8CC
:1016B0002CE05063D36A002BFCDADCF838300139B7
:1016C000DBB211F0FF016B70EDD1AA2B0FD02846D1
:1016D000FFF7F2FD204605B0BDE8F0832C49DEF8A7
:1016E000183008680340CEF828300B604BE702231F
:1016F000AB704FF08049B5E702463A212846FFF724
:1017000093FE0028E3D11D4B1A684FF0004442F4C9
:101710008062FF201A601946DC625863CB6A174A60
:10172000002BFBDA936B154A03F0C003C02B04BFF8
:101730000323AB70032116464FF00044FF201368CB
:1017400043F480631360D4625063D36A002BFCDAE5
:10175000013911F0FF01B36BF1D193E7D014FF1FF2
:101760003C800440B812FF1F80E100E084E100E00B
:1017700088E100E001403F0000003F8000C00240DF
:1017800000E100E004E100E008E100E00CE100E03D
:101790008CE100E0FC07FF1FF0B41549154A0B6807
:1017A00082B016460093009F4FF00045FF24136857
:1017B00043F480631360D5625463D36A002BFCDA70
:1017C000B36BDBB2FF2B43700AD10B680193019B13
:1017D000DB1BB3F5967FEAD9002002B0F0BC70475E
:1017E000A3F1FE00B0FA80F0400902B0F0BC7047EF
:1017F000D014FF1F00C00240F8B58378032B0E46BB
:10180000044618BF4E021546FFF78AFD32461121E5
:101810002046FFF709FE18B92046FFF7BDFF20B9A3
:101820002046FFF749FD0020F8BD204B2049214A02
:101830001A608E4659631A4659631E46596305F568
:10184000FD70A91C05F5FE77D36A13F0F00FFBD0ED
:10185000C6F834E0B36B01F8013C1B1201F8023CFE
:1018600002318F42F0D105F50075A8420DD20F4A22
:101870001646D36A13F0F00FFBD0B36B191200F8C1
:10188000021BA84200F8013CF3D3084B0949084A5F
:10189000196019465A63CB6A044A13F0F00FFAD064
:1018A0002046936BFFF708FD0120F8BD00C0024001
:1018B000FFFF009000041F80F0B4314E33684FF0FA
:1018C000004743F4806333603D46F76234467163FA
:1018D0003346511C02F20127E26A002AFCDA1A6838
:1018E00011F8016C42F480621A60DD625E63E26AA4
:1018F000002AFCDA1A6811F8026B42F480628F4207
:101900001A60DD625E63E7D11D49CA6A1C4B002A7A
:10191000FBDA1A684FF0004542F48062FF241A6037
:101920001946DD625C63CB6A154A002BFBDA13684B
:101930004FF0004543F48063FF2413601146D562E5
:101940005463CB6A0E4A002BFBDA13684FF0004554
:1019500043F48063FF2413601146D5625463CB6A5D
:10196000074A002BFBDA936BDBB203F01F024370D4
:10197000A2F10500B0FA80F04009F0BC704700BF4A
:1019800000C0024070B5044671B18378032B0D4648
:1019900018BF4D021646FFF7C3FC2A461821204601
:1019A000FFF742FD054620B12046FFF785FC0020E9
:1019B00070BD3246FE212046FFF77EFF0028F3D09F
:1019C0004FF416712046FFF705FD0028ECD02A469B
:1019D0000D212046FFF728FD0028E5D10B4B1A68A2
:1019E0004FF0004542F48062FF201A601946DD6224
:1019F0005863CB6A054A002BFBDA936B13F0FF0F99
:101A0000D2D12046FFF758FC012070BD00C0024033
:101A1000014B024A1A607047B812FF1F03200038BA
:101A200038B590F90530002B03DBBDE8384000F0F5
:101A300013BC04460121006900F04EFCF8B1257D7D
:101A4000104B13EB45151AD0A3790F4A012B9CBFFD
:101A5000A369EB61E36912686B831B0CAB8232B143
:101A600005F1160105F1180090472B8B6B82637905
:101A700003F07F036371BDE8384000F0EDBB002048
:101A800038BD00BFCC12FF1FC012FF1F10B500F100
:101A9000080204460121006A00F012FD50B1E3691A
:101AA0003BB96379A268E26163F07F03637101204F
:101AB00010BD012010BD00BF70B50646FFF7E6FF60
:101AC00098B1326AB568117C53691479023D8D4032
:101AD000013B74B11D4402E014F0FF0407D060190B
:101AE00000F06AFC013C0028F6D1002070BD336A8A
:101AF000197CB0694FF4007202FA01F30344B36138
:101B0000012070BD82790AB90020704710B50446E3
:101B1000FFF786FF18B10023A371012010BD00203C
:101B200010BD00BF70B44B1E01F10A04202203F85F
:101B3000012FA342FBD101380025072610F8014FE1
:101B40002CB32E2C1ED0164A01E09C4217D012F85E
:101B5000013B002BF9D1AE421FD3A4F121025D2A33
:101B60001BD8A4F16102192A05F1010398BF203C9A
:101B70000D44DBB298BFE4B22C701D46DEE70020B6
:101B800070BC70470A2EFAD008250A26D6E70B78D3
:101B9000B3F1200018BF0120F2E71846F0E700BFBC
:101BA000E46E000038B583793BB991F82020102A03
:101BB0000D46044603D0202A10D0002038BD022252
:101BC00082714A8CC36153018361002301206071DB
:101BD00023752562A360E360236138BD032383710D
:101BE000496AC16100F11802284600F039FC00285A
:101BF000EBD1E2E7837913B94FF0FF3070472DE95D
:101C0000F04F8B464179C90783B005465BD5C16863
:101C10008469641A944228BF144626460194002C15
:101C200069D01A46022ADFF8FC903D4FDFF8F880B1
:101C3000C1F3080A42D0286A0479013C04EA51241D
:101C4000E4B2BAF1000F62D1002C60D1002956D164
:101C5000EA69AA6090F810E04169023A02FA0EF2CD
:101C600021441144CAF500746A79B442A8BF3446CD
:101C700053062DD4B4F5007F2AD00846002100F089
:101C80002BFB00B30AEB090E0EEB040086450BD0CC
:101C90000BF1FF32734613F8011B02F8011F984243
:101CA000F9D1CEEB00008344E968361B2144E9609A
:101CB00021D0AA79022AC1F3080ABCD12A6A506A43
:101CC00000EB5121CEE74FF0FF3003B0BDE8F08FBD
:101CD0003A689142D1D0D8F800000378FE2B18D092
:101CE0005A46FFF789FD0028EDD0E968361B2144EC
:101CF000A344E960DDD1019803B0BDE8F08F05F1A0
:101D00000802A96800F074FB0028DCD0286AAA68E1
:101D1000A0E75846FFF7AAF9B0FA80F04009E2E7D9
:101D20003407FF1FCC12FF1FC812FF1F8379012B3E
:101D300017D930B5C36883B001220DF107010446FD
:101D4000C3F34315FFF756FF012802D0002003B06C
:101D500030BDE36804481F3300EB4510E36003B077
:101D600030BD0020704700BFCC12FF1FF8B583794B
:101D700013B182698A4201D20020F8BD022B0F46BE
:101D800005461AD007B32B6AE9681C7C4A1E04F189
:101D900009037C1EDA40DC40A24211D9EB69AB603A
:101DA00005F1080606E0A968286A00F021FB013C5D
:101DB0000028E1D03246002CF5D1EF600120F8BDBB
:101DC0000029EBD0A41AEBE7AF60EF600120F8BD6B
:101DD00083790BB1FFF724BE184670478379012B36
:101DE00001D000207047F0B54579AC0783B00246BA
:101DF0001CD585698D420C4618D3D5B12546D668C9
:101E00001446FFF7B3FF88B1B5B9E169206A00F065
:101E1000E1FB58B1E56122E000F0DCFB30B16FF08E
:101E20007042A168206A00F0C3FBC0B9002003B073
:101E3000F0BD184603B0F0BD01AAA168206A00F009
:101E4000D7FA0028F2D0206A0F4B90F82070019941
:101E50004FF6F872102F08BF13469942DCD363790E
:101E6000A279A56163F07F036371002ADED020466A
:101E7000FFF7D6FD0028D9D0B5422946204628BF15
:101E80003146FFF773FFD2E7F8FFFF0F70B51D4B28
:101E900003EB4116F37A13F0110F02D012F0420F48
:101EA0001ED1194B01751B680361738BB18A43EA1C
:101EB0000141C161F37A13F01803154604460DD1B0
:101EC000F36983610123837105F00F0300216371BE
:101ED0006B06A160E1600FD4012070BD102B01D012
:101EE000002070BD00F11802006A00F0B9FA002865
:101EF000F6D00423A371E7E72046BDE87040FFF762
:101F00006DBF00BFCC12FF1F3407FF1F2DE9F04744
:101F100084B001AF06460C46104639469946FFF795
:101F200001FE78B30022216A316213461546A26091
:101F3000E260DFF8008108E0E52B1CD001460B22AF
:101F4000384603F089FC88B3E368A2699A421DD938
:101F50002046C3F3431AFFF7E9FE98B10378002B3C
:101F6000EAD15DB9D8F8003086F814A0336103785F
:101F700023B10125E8E7002DFBD1F3E709F01203B7
:101F8000122B1DD0002004B0BDE8F08709F0120329
:101F9000122BF7D1A5B9A379022BF3D02046FFF776
:101FA0008BFD0028EED0214C357514E009F030038C
:101FB000302BE7D04A4651463046FFF767FFE2E74D
:101FC0000121306900F088F90028DBD0347D174BFF
:101FD00013EB4414D6D020220021204603F0D2FC7B
:101FE00097E80700234603C3114923F8022B0D6825
:101FF000120C1A709DB104F10E0104F11000A847F3
:10200000238AE28963822383E28200F025F9002893
:10201000B8D04A46317D3046FFF738FFB3E742F685
:1020200021034FF400622382E281EBE7CC12FF1F11
:10203000C012FF1F3407FF1F10B484791CB10020A9
:102040005DF8044B70475DF8044BFFF75FBF00BFBE
:102050002DE9F04F8B46817985B001290746019221
:1020600005D001233B71002005B0BDE8F08F427917
:102070009107F6D5530708D5FC68B9698C4200F082
:10208000B480FFF773FE0028EBD0019BFC68002BA7
:102090004AD0DFF8A491DFF8A4A1DDF80480386A03
:1020A0000679013E06EA542616F0FF06C4F308043A
:1020B00043D1002C41D1B968002973D1FA69002AB3
:1020C00000F08380BA60C4F50075ADB245453AD9D9
:1020D000057C4169023AAA400E4416441FFA88F56D
:1020E0001CB9F868BA6990424FD23046012100F01D
:1020F000F3F80028B5D04C4404EB050E74450DD020
:102100000BF1FF31621E0EF1FF3611F8010F02F8DC
:10211000010F9642F9D1C4EB0E04A344FC68B8EB5E
:1021200005082C44FC60BAD1BB69A34262D27A791B
:10213000BC6142F080027A7165E0C4F50075ADB211
:102140004545BA68C4D8017C4069023A8A400644D1
:10215000B5F5007F1644C3D1DAF80020964204BFDB
:102160004FF0FF32CAF800202F4A10680278FE2A8A
:10217000314633D05A46FFF705FC00283FF471AFD3
:102180000BF5007B4FF40075C8E700F065F80028F8
:102190003FF467AF2549CAF800600A7842F00102AF
:1021A0000A70A8E703AA00F023F900283FF45CAF07
:1021B000386A1F4B90F82050039A4FF6F871102D93
:1021C00018BF19468A42FFF47DAF3846FFF75EFC20
:1021D00000283FF446AF386ABA6874E75846FEF7FD
:1021E000C7FFB0FA80F04009C7E7019B002B7FF4DE
:1021F00050AF08E00F4B7A791B6823B1019B13B1F4
:1022000042F080027A71120709D5BB79002B3FF4A6
:1022100028AF3846FFF704FC00283FF422AF0198AE
:1022200005B0BDE8F08F00BFC812FF1FCC14FF1F20
:10223000F8FFFF0FC012FF1FCC12FF1F3407FF1F54
:1022400000B583B002AB012203F8011D1946FFF768
:10225000FFFE03B05DF804FB70B51A4C23780BB990
:10226000012070BD184D194B286819680378FE2BA2
:1022700017D0174AFFF786FB88B1164E316819B997
:1022800000232370012070BD28680378FE2B0FD037
:102290000F4AFFF777FB10B100233360F0E700200F
:1022A00070BD0B48FEF764FFB0FA80F04009E3E729
:1022B0000748FEF75DFFB0FA80F040090028EBD137
:1022C000EDE700BFCC14FF1FC812FF1F3407FF1F2C
:1022D000CC12FF1FC412FF1F70B5124D2B68834232
:1022E0000E4611D00446FFF7B7FF08B9002070BDB5
:1022F0000D4B18680378FE2B0CD00C4A2146FFF7D3
:102300007BFA0028F2D02C60094B19783143197000
:10231000012070BD21460548FEF7A8FEB0FA80F006
:102320004009EEE73407FF1FC812FF1FCC12FF1F42
:10233000CC14FF1FF8B590F82030C469102B1A4B4D
:1023400005460E4617461B6816D004EBD1149C4276
:1023500016D106F07F06154A42F826701449287EE9
:102360000A78012842F001020A7018D9A968114AB6
:102370000B4413600120F8BD04EB11249C4208D0EB
:1023800000212046FFF7A8FF50B195F82030102B10
:1023900007D1F6B2054A234622F81670DEE701207F
:1023A000F8BD2346D5E700BF3407FF1FCC12FF1F3F
:1023B000CC14FF1FC412FF1F10B50446FFF74CFFDB
:1023C00078B1084B002103F5007203F8011F934216
:1023D000FBD1054A054913780C6043F001031370E3
:1023E000012010BDCB12FF1FCC14FF1F3407FF1FAD
:1023F000C36801338B4218D370B590F82030102B8E
:10240000154B044616460D46C0691B680FD000EBFD
:10241000D11098420FD105F07F01104B53F82130B5
:1024200023F070433360012070BD0020704700EB43
:102430001120984207D00021FFF74EFF50B194F8C9
:102440002030102BE7D1E9B2044B33F81130336060
:10245000012070BD002070BD3407FF1FCC12FF1F8C
:102460002DE9F04782B002ADDFF8508045F8041D39
:10247000044691464FF0000A4FF400774FF6F87685
:102480000CE094F82030227C0199102B14BF4346B5
:10249000334607FA02F29942924408D22A4620466D
:1024A000FFF7A6FF0028ECD102B0BDE8F0870120BD
:1024B000C9F800A002B0BDE8F08700BFF8FFFF0F29
:1024C0002DE9F04F176883B06FB301374FF0000A62
:1024D000C36803F1010813B38B46064691463C4698
:1024E000002505E01C461F46F3680135AB4216D9AE
:1024F000A04538BF0224214601AA304638BF2746EE
:10250000FFF776FF631CD91B48B1019A002AE9D175
:102510008B4510D01C46F3680135AB42E8D800204B
:1025200003B0BDE8F08FA1F1010ABAFA8AFA076890
:102530004FEA5A1ACCE7012CF1D9F36801339C42D7
:10254000EDD86FF0704221463046FFF7F3FE0028C9
:10255000E5D0A74214D2013C012CE0D9F368013345
:102560009C42DCD8621C21463046FFF7E3FE00287F
:10257000D5D0A74204F1FF3402D0012CEED1CEE732
:10258000D9F8001059B10129C9D9F368013399422A
:10259000C5D83A463046FFF7CDFE0028BFD0C9F86F
:1025A0000070BAF1000F01D0013737600120B7E7A2
:1025B00001290CD9C3680133994210B403D85DF8DE
:1025C000044BFFF7B7BE00205DF8044B70470020B6
:1025D000704700BFF0B5022383B00546134F036078
:1025E0000C464FF6F8760FE0EB6801339C4216D8A4
:1025F000FFF7A0FE98B195F82030019C102B0CBF7E
:1026000033463B469C420DD201AA21462846FFF79D
:10261000EFFE2146002210B1012C2846E4D800200C
:1026200003B0F0BD012003B0F0BD00BFF8FFFF0F05
:10263000F8B53E4B054619601446DAB1042A01D9B3
:102640000020F8BD00210846FFF746FE0028F7D01D
:10265000374B03EB041292F8AE215206F0D11B3433
:1026600003EB0414D4F80A30632BE9D9D4F80640FC
:10267000002CE5D000212046FFF72EFE0028DFD0F9
:102680002B4AB2F80B30B3F5007FD9D1117C002969
:10269000D6D0D389002BD3D0567B002ED0D00023A8
:1026A00029762E712B74012703E009290B46297422
:1026B000C6D007FA03F0B04203F10101F5D1D68A82
:1026C0001B4906B94E6AB2F80EE0AE60A644C5F8E2
:1026D0001CE0B2F81110177C6984480106FB07E67C
:1026E00000F2FF1006EB60206E626861B2F8131012
:1026F0000F4E01B9316A241A0C4424FA03F340F650
:10270000F4718B42EB600BD94FF6F4718B4285BFAD
:10271000D36A6B621023202385F820300120F8BD96
:102720000C2385F820300120F8BD00BFC812FF1F20
:10273000CC12FF1FF8B50E4671B17AB107461446A8
:1027400000253B6816F8011B1B6838469847013C7A
:102750000544F6D12846F8BD0846F8BD1046F8BD38
:1027600000B5064A036812885B6883B001A9ADF81A
:1027700004200222984703B05DF804FBF46E0000C9
:10278000F0B507468BB0002A33D0012A08BF0A22D1
:1027900051B3212400E0F4B2B1FBF2F502FB1511B4
:1027A000C8B2092900F1300198BFC8B20AA988BF90
:1027B0003730214488BFC0B201F8240C661E294678
:1027C000002DE8D133B1013CE4B20AAB23442D2201
:1027D00003F8242C3B6801AA11195B683846C4F140
:1027E000220298470BB0F0BD30228DF8252021241D
:1027F000E8E70368C9B21B6898470BB0F0BD00BF9B
:102800000029BABF49422D2300230A22FFF7B8BF8F
:1028100010B50446006802F049FD204610BD00BF17
:1028200038B543688B4201D3012038BD0D460446BC
:102830000131006803F0F8F80028F6D0A36884E8B6
:102840002100002BF0D10370EEE700BFF8B504467D
:10285000154632B9036803B11A700023A3602046FD
:10286000F8BD0E461146FFF7DBFF074648B9206862
:1028700010B102F01BFD276000236360A3602046B7
:10288000F8BDA5603146206803F0B8FCE7E700BF5B
:1028900038B500230446036043608360037341B18D
:1028A00008460D4603F00CFD294602462046FFF778
:1028B000CDFF204638BD00BF38B5054608460C465A
:1028C00003F0FEFC214602462846BDE83840FFF7EB
:1028D000BDBF00BF10B582B000238DF804100360A7
:1028E000436083600373012201A904468DF805301B
:1028F000FFF7ACFF204602B010BD00BF814203D0FD
:102900008A680968FFF7A2BF704700BF10B5044688
:1029100019B1FFF7D1FF204610BDA160204610BDC0
:1029200000B583B000238DF80410012201A98DF8B1
:102930000530FFF78BFF03B05DF804FB2DE9F8438A
:1029400003680F46BB420446816815460AD85A18E8
:10295000974207D2C3EB07094FF0010835B920466B
:10296000BDE8F8834FF00008002DF8D04E1931462D
:102970002046FFF755FF0028F1D0B8F1000F0ED028
:102980002368A0682A4603EB0901184400F0B6F852
:10299000236800229A55A6602046BDE8F883206887
:1029A000A3683946184403F029FCF4E78A680968EB
:1029B000FFF7C4BF036853B1096811B1184603F0AB
:1029C000B3BA806810B118787047184670470B6822
:1029D000002BFAD088680028F8D018784042704759
:1029E00008B582688B689A4201D0002008BDFFF7C5
:1029F000E1FFB0FA80F0400908BD00BF826808B569
:102A00000B462AB971B11878B0FA80F0400908BDB8
:102A100031B1006803F088FAB0FA80F0400908BDCF
:102A20000368F0E7012008BD836843B110B504686E
:102A30000968204603F042FE20B1001B10BD4FF094
:102A4000FF3070474FF0FF3010BD00BF38B58368CE
:102A50008B42044614D99AB1084611448B4238BFC0
:102A60001A1A2568A3EB020238BF1946A26029444E
:102A7000121A284402F022FF2268A3680021D154D0
:102A8000204638BD2DE9F04106680746EEB184685E
:102A9000DCB1354600E04546287805F1010802F032
:102AA000D9FB0028F7D1013C344402E0A54205D807
:102AB000013C207802F0CEFB0028F7D1621C521BAB
:102AC000B542BA6004D80023B3543846BDE8F0815B
:102AD0003046294600F012F83E68BA68F3E700BFB6
:102AE000006808B102F07EBB704700BF08B5FDF773
:102AF000BDFCFDF715FD01F01FFDFAE7844641EA34
:102B0000000313F003036DD1403A41D351F8043B65
:102B100040F8043B51F8043B40F8043B51F8043BB7
:102B200040F8043B51F8043B40F8043B51F8043BA7
:102B300040F8043B51F8043B40F8043B51F8043B97
:102B400040F8043B51F8043B40F8043B51F8043B87
:102B500040F8043B51F8043B40F8043B51F8043B77
:102B600040F8043B51F8043B40F8043B51F8043B67
:102B700040F8043B51F8043B40F8043B51F8043B57
:102B800040F8043B51F8043B40F8043B403ABDD2C6
:102B9000303211D351F8043B40F8043B51F8043B68
:102BA00040F8043B51F8043B40F8043B51F8043B27
:102BB00040F8043B103AEDD20C3205D351F8043BF7
:102BC00040F8043B043AF9D2043208D0D2071CBFC3
:102BD00011F8013B00F8013B01D30B8803806046EC
:102BE000704700BF082A13D38B078DD010F0030362
:102BF0008AD0C3F10403D21ADB071CBF11F8013BD2
:102C000000F8013B80D331F8023B20F8023B7BE720
:102C1000043AD9D3013A11F8013B00F8013BF9D24B
:102C20000B7803704B7843708B78837060467047E5
:102C300008B5104C08E0236859050DD423681A051F
:102C40000FD42368DB0411D423685803F3D500F0B4
:102C5000C5FC23685905F1D501F092FE23681A05D9
:102C6000EFD501F023FF2368DB04EDD501F0B4FFBD
:102C7000EAE700BF3480044008B5FFF7D9FF00BF82
:102C8000014B10221A80704700200540704700BF9A
:102C9000094908B50B6830B16A461844A2F50052DC
:102CA000904202D20860184608BD02F0A5FA0C2333
:102CB00003604FF0FF3008BD3807FF1F084A137844
:102CC000802B01D0002070470649074B0748086059
:102CD000002119701378802BFCD00120704700BFB1
:102CE00003E007404480044001E007400000282240
:102CF000094A1378012B01D00020704703F180436B
:102D000003F5FC23602119701378802BFCD1034B51
:102D1000034A1A600120704703E0074044800440E2
:102D200000000602F0B44D1E2E46002400E00134DF
:102D3000B0FBF2F302FB1300092800F130078ABF51
:102D40003730F8B2C0B206F8010F1846002BEED1AA
:102D50000A1953704CB1107815F8016F28700133BF
:102D6000E01A834202F80169F5DB0846F0BC7047BF
:102D700010B4114B53F8302092F8804234B1012343
:102D800079B182F880305DF8044B704703EBC003E3
:102D90005B681A6851B922F002021A605DF8044BB0
:102DA000704782F800315DF8044B704742F003022F
:102DB0001A605DF8044B7047F86E00001C4A02EB85
:102DC000C00301295B6811D004291BD052F83000E0
:102DD000002280F8802229B1022920D0032922D0A4
:102DE0001A6070474FF480721A60704752F83000D2
:102DF0004FF4A27280F880121A601A6822F0200242
:102E00001A60704752F830104FF4A272012081F816
:102E100080021A601A6842F020021A60704740F27D
:102E200003121A6070474FF481721A60704700BF36
:102E3000F86E000030B4054B054D064C0022102101
:102E40001A602A602060196030BC704714D00340BB
:102E500004D0034000D0034038B5A0F14203012B59
:102E6000044624D900297ADD994B1B78012505FAFF
:102E700003F28A4202D83F282CD938BDC21E012A4B
:102E800030D9A0F11D02012A78D90E285BD9A4F10E
:102E90002302032A5CD9A4F11002012A94BF8D4AAF
:102EA0008D4A126802FB011222FA03F320E0884BDC
:102EB0001B780B2B0AD90C2B1CBF0C3B1941422C45
:102EC000084657D0BDE8384001F02CBDC3F10C03D3
:102ED0009940F4E72946FFF74BFF2946BDE8384003
:102EE000FFF76CBF7D4A126802FB011222FA03F35E
:102EF000A21E242A00F2E380DFE812F0DA00D300F9
:102F0000CC00C500BE00B700B000A900A200E100DF
:102F1000E100E1009B00E10094008D00E100E10090
:102F200086007F0078007100E100E100E100E1002F
:102F3000E1006A006300E100E100E100E1005C0003
:102F400055004E00470044F28412C240D2079ED57D
:102F5000634A126802FB011222FA03F3C8E73F2812
:102F60008BD80021FFF704FF20460121BDE838403F
:102F7000FFF724BFBDE8384001F0B6BC594A1268DB
:102F800002FB011222FA03F3B2E75749574A0B60DA
:102F90004FF45173136038BD5549564A0B604FF4D6
:102FA0005173136038BD5449544A0B604FF4517348
:102FB000136038BD5249534A0B604FF4517313608C
:102FC00038BD5149514A0B604FF45173136038BDFD
:102FD0004F49504A0B604FF45173136038BD4E494E
:102FE0004E4A0B6040F24443136038BD4C494D4A91
:102FF0000B6040F24443136038BD4B494B4A0B60B1
:1030000040F24443136038BD49494A4A0B6040F2DC
:103010004443136038BD4849484A0B6040F244635A
:10302000136038BD4649474A0B6040F24463136061
:1030300038BD4549454A0B6040F24443136038BDF2
:103040004349444A0B6040F24443136038BD42494F
:10305000424A0B6040F24443136038BD4049414A44
:103060000B6040F24443136038BD3F493F4A0B6058
:1030700040F24443136038BD3D493E4A0B6040F284
:103080004443136038BD3C493C4A0B6040F2444322
:10309000136038BD3A493B4A0B604FF451731360DB
:1030A00038BD3949394A0B604FF45173136038BD4C
:1030B0003749384A0B6040F24443136038BD3F2C17
:1030C0003FF6DBAE7F29D4BF00210121204649E72E
:1030D0003C07FF1F08900C40088003400890034005
:1030E00008900B4008800B4048900B402CB00440E7
:1030F00040900B4028B0044038900B4024B004406E
:1031000030900B4020B0044018800B404CA004408D
:1031100010800B4048A004401880034008B00440D1
:103120001080034004B004404080034018C00440B5
:103130003880034014C0044018900C4004A00440A0
:1031400010900C4000A0044018900B4004C00440B4
:103150002880034010B00440208003400CB004409D
:1031600028900B400CC0044020900B4008C0044045
:103170003080034010C00440488003401CC004401D
:103180001890034034900440109003403090044065
:1031900010900B4000C0044038B1102828BF102008
:1031A000044AC3B2107813707047024A01231078A2
:1031B000137070473C07FF1F3F2801D8FFF7D8BDA9
:1031C000704700BF3F2801D8FFF7F8BD704700BF28
:1031D00072B60D490D4B0E4A1B680868126862B63C
:1031E000520102D5322B88BF0130C3F52F33094974
:1031F00003F21F334FF47A729B08A1FB031302FB07
:1032000000F000EB93007047D014FF1F18E000E0BF
:1032100004ED00E0176CC1162DE9F843054672B6BF
:10322000224F234B234A1B683C68126862B6520146
:1032300002D5322B88BF0134B5B3C3F52F3303F267
:103240001F331D4EDFF86890DFF868809B084FF44D
:103250007A72A6FB031302FB04F404EB930472B628
:10326000D9F800103A68D8F800E062B6C1F52F33FB
:1032700003F21F339B08A6FB03031EF0806FC4EB11
:1032800093034FF47A7002D0322988BF013200FBD9
:103290000233B3F57A7F04D3013D05D004F57A7487
:1032A000DDE701F049F9DAE7BDE8F883D014FF1F44
:1032B00018E000E004ED00E0176CC116F8B54E4BC5
:1032C0004E48DFF85CC14E4C4E49DFF858E14E4E97
:1032D0004E4D4F4F4FF000621A604FF080521A600F
:1032E0004FF000521A604FF080421A604FF00042D7
:1032F0001A600022026028234EF6FF70CCF800000E
:10330000CEF8003023600EF5012E0B6033602B6089
:1033100006F500263B6005F50025A36207F50027AA
:103320008B6204F5012401F5012106F6E87605F625
:10333000E87507F57F6710310EF1100E2034336009
:103340002B60CEF800303B600B602360314CBB61DA
:103350008B6109212160A7F5002704F58054203FE7
:1033600008343A602060BB60E36047F8041C04F551
:10337000FD2407F5FE27043704F2FC742260386050
:10338000A360FB6044F8041C083404F6FC74C7F81E
:10339000FC2F2060A4F5E124A4F2DC7433602B60E0
:1033A000C7F8F81F21681C4841F4007121600168CA
:1033B0001A4C0EF57F4E0EF1E80E07F5883706F52C
:1033C000803605F5803541F000710160CEF80020AF
:1033D00047F6FF710822396033602B60226001F0EC
:1033E00013FA1920FFF718FF00F060FE40F21310E7
:1033F000BDE8F840FFF710BF04E100E0048003409F
:10340000148003401C800340248003402C80034030
:1034100034800340008003400480044000900C404E
:10342000088003400C800340431E032B14D872B65F
:103430000A4951F8230068B170B4094C058834F882
:103440001320466841F82360521B24F8132062B60B
:1034500070BC704762B67047002070472C15FF1F84
:103460002419FF1F013803280BD872B6074B53F8F5
:10347000203043B100205B680130002BFBD162B6E5
:103480007047002070471846F9E700BF8015FF1FFE
:1034900030B472B62B4A13781D0706D52A4B196A29
:1034A000002936D0996A002941D053781C0706D5E7
:1034B000254B196C00293ED0996C002939D093789E
:1034C000190705D5204B196E002936D0996E89B1A0
:1034D000D3781B0707D51C4BD3F880207AB3D3F8D9
:1034E000882011213AB162B6184B00221A7030BC04
:1034F00000F092BE0D21154C154D227843F8315045
:1035000003EBC1030830013A5860227062B630BC48
:10351000704704220D4C0F4D217843F8325003EBD5
:10352000C20308304A1E5860227062B6EFE70521D8
:10353000E1E70921DFE70822ECE70C22EAE71022A5
:10354000E8E700BF207100000000FF1FA915FF1F62
:10355000C800400088004000431E032B1DD81B4AB2
:10356000400140F0100030B4104472B6184CE25CD8
:10357000032A1BD8DFE802F00212151703220D8878
:10358000E25410F0080F14BFC823882343EA054310
:1035900008310360416062B630BC704708300222D7
:1035A000EDE70522EBE708300422E8E7094A52F884
:1035B000230038B1084A52F82300416042F8231032
:1035C00062B6E9E742F82310034AF7E70000FF1F5D
:1035D000B815FF1F8015FF1F9015FF1F2DE9F04F35
:1035E000DFF80CB3DFF80CA387B044E0AB4F4FEA31
:1035F000930807EBC809013ED9F8042003F008033B
:10360000F6B2A2F1080003F0FF04002B40F00281A3
:1036100057F838301B0C99B222F8081C002B00F028
:10362000F0809F4B22F8064C42F8044C53F82620B9
:10363000002A00F0C5829B4D55F8263058609A4C00
:1036400045F8260034F81630194424F8161000F016
:10365000C3FD002800F0AD82944A954B19F0080F85
:1036600000F1080018BF1346C9F8040047F83830C5
:1036700008238BF800309BF80040E4B261071AD5AC
:103680008C4B1B78A3B18C490A7802F0FF0322B15E
:10369000013BDBB20B7003B900BE88490A7802F027
:1036A000FF032AB1013BDBB20B70002B00F0578205
:1036B00004238BF8003004F0080303F0FF02002B12
:1036C00000F0CC809AF80030DBB21E098ED19C0845
:1036D000DFF8C89159F8342009EBC401C2F3830222
:1036E000013A49680C2A00F28880DFE802F07C7C0D
:1036F0008686868686864786868607000868704D99
:103700004A68704F704E286081B240F28160674B0A
:103710006A604FF0010E0022814249F834303A606D
:10372000C9F81020C9F8182086F800E05B4C00F2B8
:10373000E380B1F5D06F80F04683B1F5817F00F072
:10374000FC8200F28D82802900F07783822940F08C
:10375000FA82A98801F07F01042900F2F4825B4813
:103760005B4C89000844227062700278930740F134
:10377000588484F800E04FF0020E42E3514F3A685B
:1037800032B3544B504E5449188834780D78402841
:10379000864645F0020828BF4FF0400E002C84F00A
:1037A00001043470CEEB00000CBF8824C82409EB60
:1037B000C80680B285F0010544EA0E4472601880A4
:1037C00049F8384072440D70002800F045813A6095
:1037D0003B4B1A88B2F5A06F0FD100219A7859702F
:1037E0003E4B1A7009E0364A108842F2210290429C
:1037F00000F037812D4A49F83420394A01231370EB
:1038000036E72A4A2A4B19F0080F18BF134647F823
:1038100038302DE700F000FD324A334952F82630A7
:10382000002B00F0D18158688C5D42F8260003F12E
:103830000802C9F80420032C05D8DFE804F02C02A4
:10384000292602228A551A8819F0080F0CBF8823EE
:10385000C82343EA024347F8383009E7E00700F19C
:103860008181210600F1F281A20706D51F4A204975
:1038700013780220DBB213700870E30602D51C4BEC
:1038800010221A7007B0BDE8F08F04228A55DAE7DB
:1038900005228A55D7E703228A55D4E70000FF1F87
:1038A0002C15FF1FD814FF1F2419FF1FC80040004C
:1038B00088004000B415FF1F3D15FF1FBC15FF1FFA
:1038C000A015FF1FD414FF1F3C15FF1FC020074089
:1038D000AC15FF1FE814FF1FA815FF1F9820074015
:1038E000942007408015FF1FB815FF1F8820074050
:1038F000802007409020074042F22100814200F0E2
:103900002A8100F2D880B1F5086F00F07682B1F517
:10391000106F40F01882226AB349A8780870120626
:1039200000F13A83D9F82820B049130600F10C833E
:10393000D9F83020AD49150600F10183D9F83820B7
:10394000AA49140600F1F682D9F84020A7491006CA
:1039500000F14A83D9F84820A449120600F13F83B8
:10396000D9F85020A149130600F13483D9F8582022
:103970009E49150600F12983D9F860209B49140659
:1039800000F11E83D9F868209849100600F11383CE
:10399000D9F870209549120600F10883D9F87820EB
:1039A0009249130600F1FD82D9F880208F4915064F
:1039B00000F13183D9F888208C49140600F1258361
:1039C000D9F890208949100600F11983D9F8982078
:1039D0008649120600F10D838548864A8649019082
:1039E0008648874D874C04970023059602958046AC
:1039F0000F4616461D460394306828B1446800F00F
:103A00000BFC2046002CF9D100233360029B386860
:103A10001A46002342F8253028B1446800F0FCFB28
:103A20002046002CF9D100223A60019A98F8003023
:103A30001146002241F8042B039A0191023B4FF0FA
:103A4000000122F81510032B00F22B81DFE813F0A0
:103A50007001250170012501BEF1400F18BF002241
:103A6000B5E6694A0D784878157050708D78C87839
:103A70009570D07010680D79157186284D79897907
:103A80005571917100F09B816049614E0A783078E0
:103A900082F00105002842F002020D700CBF88215F
:103AA000C82149F8321009EBC20280F00100002160
:103AB000307051609EE642F22120814240F0CB817D
:103AC000544B554C5549A8781D682560CDF804E045
:103AD0000870002002908046844604464B490D78C9
:103AE00045F0020E09EBCE030393019B002B039BD1
:103AF0005C600CBF8824C82444EA080385F00104F4
:103B000049F83E3032700C70DFF8E0E0404BDFF8EF
:103B1000FC80002840F01E81BCF1400F1BD144F016
:103B2000020C09EBCC03029CDFF8C0E05C60002AC9
:103B300040F02681020442F088029DF804304EF8DD
:103B40003C20044433700D702346402803D10020EC
:103B5000334A3B601080334A012313704DE600F076
:103B6000C7FCA5E5214B2F4828491A614FF0020EEA
:103B700080F800E02C4F0A702C49196099602C4E97
:103B80002C4D2D4C9A610D213970FF213170DFF8D9
:103B9000B8E029702270294D294A8EF800109F271D
:103BA000012406F8047C5D600470DA6007B0BDE8AB
:103BB000F08F244A47F8380013780133137057E523
:103BC00043F826000E4D3AE58B5D032B00F2F080A2
:103BD00001A252F823F000BF7136000071360000D8
:103BE000953C00008F3C0000B415FF1F0000FF1F34
:103BF0009015FF1F2C15FF1F8015FF1FB815FF1F05
:103C0000D814FF1F2419FF1F2C19FF1FA815FF1F11
:103C10003C15FF1FD014FF1F3419FF1FCC15FF1FC9
:103C2000E814FF1F94200740C02007408800400090
:103C3000882007408020074098200740EC14FF1F91
:103C40004015FF1FA915FF1F8C200740C149C24B1B
:103C500080220D2008701A70A2077FF50EAE05E6CF
:103C600040F20232914240F0EE80A98801F07F01DB
:103C7000042968D86A88002A65D1B648CDF804E0DE
:103C800089000844017841F00201017021E7012315
:103C90008B55EDE400238B55EAE44FF0010388F8DF
:103CA00000300135042D06F1040607F1040708F180
:103CB00001087FF4A1AEA94CA94B2278A94D049F1D
:103CC000059E002129701A70130700F105816278A2
:103CD000A549DFF8A0820A7010074FF00001C9F86B
:103CE0003010C9F8381000F1E080A049A2780A70BD
:103CF0000021C9F85010C9F858101107DFF8748274
:103D000000F10181E2789A499A4C0A700021120769
:103D1000C9F87010C9F8781000F1B08033780193B9
:103D2000002183F00102C9F89010C9F89810D0E67C
:103D30004FF0000388F80030B3E7A98801F07F0155
:103D4000042940F28D80834A0F2313708A4A01238D
:103D5000137052E540287FF6E2AE44F002040EEB09
:103D6000C401029E4E60BAB19DF80410834A1970D6
:103D70003346403888F8005040334EF83420E7E6A8
:103D80009DF8043033700204029B0D7042F0C802AB
:103D900003444EF83C20D8E69DF804101970029BAD
:103DA000774A88F80050403840334EF83420CFE648
:103DB00019F0080F0CBF022303238B5558E4714AF6
:103DC0000F21117060E6704A5468002CBBD06888DF
:103DD000B5F804E003E00C325468002CB3D013882B
:103DE0008342F8D153887345F5D1000A03280CBFEC
:103DF00094F800E0B2F808E003E0644A644C1278FA
:103E00002270E888704580F03F8162490D78402833
:103E1000844645F0020E28BF4FF0400C04EB0C0323
:103E200009EBCE02029301235460CCEB00004FEA71
:103E30000C4800220193C8245EE6554C4FF0020E58
:103E400022706270DDE7B1F5A06F7FF47CAF0123D3
:103E5000002201933DE642F221329142F7D072E70F
:103E60006A88002A7FF46FAF3A48CDF804E08900F1
:103E70000844017821F0020101702AE600F0ACF953
:103E8000002800F0EF8008303D4AC4F88400C4F8F0
:103E9000802000F0A1F9002800F0DE800830374AC9
:103EA000C9F88C00C9F8882038E700F095F9002897
:103EB00000F0C0800830324AC8F84400C8F84020FA
:103EC00000F08AF9002800F0AF8008302B4AC9F8CA
:103ED0004C00C9F8482008E700F07EF9002800F0FF
:103EE000CD800830264AC9F82400C9F8202000F007
:103EF00073F9002800F0BC800830204AC9F82C0073
:103F0000C9F82820E3E600F067F9002800F09E8059
:103F100008301B4AC8F86400C8F8602000F05CF95B
:103F2000002800F08D800830144AC9F86C00C9F8E8
:103F30006820E7E6C86B083800F06EF904E5486BC6
:103F4000083800F069F9F9E4C86A083800F064F943
:103F5000EEE400BFC0200740802007402071000031
:103F6000C4200740A915FF1FC8200740CC200740E8
:103F7000D02007400000FF1F94200740C8004000E9
:103F8000880040003D15FF1F24710000B415FF1F7D
:103F9000AC15FF1FA815FF1F606A083800F03CF938
:103FA000C0E4C86F083800F037F9FDE4486F0838FE
:103FB00000F032F9F2E4C86E083800F02DF9E7E4B9
:103FC000486E083800F028F9DCE4C86D083800F0C5
:103FD00023F9D1E4486D083800F01EF9C6E4C86C36
:103FE000083800F019F9BBE4486C083800F014F9FF
:103FF000B0E4D1F89C00083800F00EF9ECE4D1F8F8
:104000009400083800F008F9E0E4D1F88C00083892
:1040100000F002F9D4E4D1F88400083800F0FCF88C
:10402000C8E44FF0020EECE62A78C9F848000132E5
:104030002A705AE62A78C8F8400001322A703FE711
:104040002A78C9F8680001322A705BE62A78C8F835
:10405000600001322A7061E72A78C9F888000132CD
:104060002A705BE62A78C4F8800001322A7010E7D3
:104070002A78C9F8280001322A7028E62A78C9F877
:10408000200001322A7032E7BEF1400FF44628BF0B
:104090004FF0400C04EB0C0302930123CCEB0E0019
:1040A0004FEA0C480022019318E500BF2DE9F041CA
:1040B00000F078FF314C324B3248DFF8E480324E6A
:1040C000DFF8E0C0314F324DDFF8DCE000221A604B
:1040D0005A609A60DA601A615A619A61DA611A620A
:1040E0005A629A62DA621A635A639A63DA631A64EA
:1040F0005A649A64DA641A655A659A65DA651A66CA
:104100005A669A66DA661A675A679A67DA67C3F870
:1041100080202168C3F8842041F480212160016857
:1041200041F040710160032188F80010A020C3F322
:1041300007218CF8000004F528343170C3F30740E0
:10414000144938701B0E2B70CC34FF238EF80030CE
:10415000114D0CF8B83C11480B70012306F8083CCF
:10416000227070264FF40014102207F82C3C2E7099
:10417000046081F8F820BDE8F08100BF348004407D
:104180000000FF1F00D800409C200740B0200740DF
:10419000B42007401020074035E400E004E100E0CF
:1041A00044210740402107408020074000F0A4B888
:1041B00000F07CB800F056B800F090B800F06CB990
:1041C00000F046B90846114600F0B2B8084600F0C3
:1041D00033B900BF704700BF72B60D480268B2FA2B
:1041E00082F30B2B10DC4FF00041D94022EA010290
:1041F000026062B6074803EBC303DB00C21800216C
:10420000C15010465160704762B60020704700BF31
:104210005007FF1FD003FF1F0D4B0E4AC31AA2FB0E
:1042200003231B090B2B0CD80B4A127852B972B618
:104230000A484FF00041026821FA03F31A43026072
:1042400062B67047064A1278002AF0D0FFF720B90C
:10425000D003FF1F398EE338A915FF1F5007FF1F3A
:10426000B415FF1F38B50F4D286878B14388028810
:10427000C118013393420C7A02D24380204638BDE4
:10428000FFF7CAFF002320462B6038BD064B1B7882
:104290002BB10320FFF7C8F828600028E6D14FF0C3
:1042A000FF3038BDC815FF1FB415FF1F10B5094CEE
:1042B000206818B143881844007A10BD064B1B785B
:1042C0002BB10320FFF7B0F820600028F2D14FF0A7
:1042D000FF3010BDC815FF1FB415FF1F044B054A62
:1042E0001B6890881BB11A885B88D31A18447047E2
:1042F000C815FF1F2419FF1F0B4B1B789BB110B56E
:104300000A4C206848B1FFF787FF00230320236091
:10431000FFF78AF830B1FFF77FFF0320FFF784F83B
:104320000028F8D110BD7047B415FF1FC815FF1F36
:104330002DE9F04FDFF8F89083B0012289F80020D2
:10434000019169B3DFF8EC80354F019E8346D8F8C0
:104350000000B0B3334D4488C4F14001B14228BFDE
:10436000314604EB010E00221FFA8EFE2A70761AE7
:10437000A0F802E000F1080251B1013C2244594486
:104380001BF8014B02F8014F8B45F9D1B0F802E060
:10439000BEF13F0F0BD8244A05211170002ED6D153
:1043A0000198002389F8003003B0BDE8F08F402267
:1043B000028001460420FFF7CFF80022C8F8002051
:1043C000E9E73A7822B3194C164D4FF0010A07E09D
:1043D000013C16D02A78A2B900F0AEF83A78BAB10A
:1043E0000420FFF73FF80728F2D889F800A0FFF76C
:1043F000F3FEC8F800000028ADD10D4B013C187049
:10440000E8D101234FF0FF302B7003B0BDE8F08FEF
:1044100000234FF0FF3089F8003003B0BDE8F08F83
:10442000B415FF1FC415FF1FBC15FF1F2148010055
:10443000BD15FF1FC015FF1F00B583B002AB0121E2
:1044400003F8010D1846FFF773FF03B05DF804FB96
:1044500038B50E4D0E4C28680123237028B14088D2
:1044600000232370C0F1400038BD0A4B1B7813B9FC
:104470000020207038BD0420FEF7F4FF0728F7D88D
:10448000FFF7AAFE28600028E9D1F1E7C015FF1F59
:10449000BD15FF1FB415FF1FF8B5114B1B788BB16D
:1044A000104E114D346801272F7064B10F4A638894
:1044B00000271770214623800420FFF74DF837604E
:1044C00000232B70F8BDFFF787FE084B28B101468B
:1044D00004201C70FFF740F8F2E71F70F0E700BF00
:1044E000B415FF1FC015FF1FBD15FF1FBC15FF1F13
:1044F00038B50E4B1B7873B90D4C216861B103F0D0
:10450000FF054B880B800420FFF726F8256038BD97
:10451000084B01221A7038BDFFF75EFE0028F7D065
:104520000146BDE838400420FFF716B8BD15FF1F4F
:10453000C015FF1FBC15FF1F38B52C4C237803B1E5
:1045400038BD01232370FFF7C9FE002842D100F0D7
:1045500007FA00283BD100F099FA002834D100F086
:104560002BFB70BB00F0A4FB40BB00F01DFC10BB9C
:1045700000F096FCE0B900232370EFF30583002BD5
:10458000DED1EFF3108172B6194B186828B3194CBD
:10459000227812BB45691D60012323700DB3AA6107
:1045A00001B962B600254577836898472570C7E74B
:1045B00000F028F9DFE700F023F9D9E700F01EF951
:1045C000D3E700F019F9CDE700F014F9C7E700F0E0
:1045D0000FF9C0E7FFF7FEFDB9E70029B0D162B6D9
:1045E00038BD054B1D600029DCD1DAE7CD15FF1F72
:1045F000E015FF1FE415FF1FDC15FF1F10B4EFF3DC
:10460000108272B6437F33B9017F012908D0032994
:1046100010D00123437702B962B65DF8044B7047AE
:10462000114C2168A1B1114943610B688361086095
:104630005861EEE70E4C216881B10E4943610B6869
:104640008361086058610C4B4FF080511960E0E7BE
:10465000064B4161816120601860DAE7054B4161DA
:10466000816120601860EEE7E015FF1FDC15FF1F79
:10467000D015FF1FD415FF1F04ED00E010B4047F18
:104680004160022CC26003D05DF8044BFFF7B6BF57
:1046900083685DF8044B184770B5EFF3108272B66B
:1046A0000C4C206880B10C4E00254369236073B127
:1046B0009D6102B962B6457783689847EFF310822F
:1046C00072B620680028F0D102B962B670BD3360BE
:1046D000EFE700BFD015FF1FD415FF1FFFF7DCBFAA
:1046E000184A30B41468002C27D0036821688B4224
:1046F0000ED2CB1A00218460C1602360E06010609C
:104700000223037530BC704711688B42144608D3EE
:10471000A2685B1A0360002AF6D18260C460A060C0
:10472000EEE7D268C2608460E060C568CB1A0222FE
:10473000A8602360027530BC70478460C46010605C
:10474000DEE700BFD815FF1FF8B5224E34682CB342
:104750002368002B3AD1204F1D4604E03468ECB1A9
:104760002368002B32D1A36803B1DD602069336078
:10477000036825751B68BB4221D1037F4560022B6E
:10478000C46020D0FFF73AFF6368002BE6D02360B7
:104790002046FFF7A5FF3468002CE1D1EFF310832A
:1047A00072B60E4A00211068116003B962B628B1D2
:1047B0008468FFF795FF20460028F9D1F8BD22460E
:1047C00000219847E0E783689847DDE7013B2360D5
:1047D000E4E700BFD815FF1F7D460000E815FF1F66
:1047E000024A136801331360FFF7AEBFD014FF1FF6
:1047F000704700BF704700BF704700BF704700BFE1
:10480000704700BF704700BF30B42948294A2A4B7F
:104810002A4D6024E121047011701B78284C082B6C
:1048200030D00A2B2748284937D00C2B0CBF352213
:104830005D2212232A60236002600B60234B24490F
:104840001B78244ABBB101230B601360224B234920
:104850001B78234A012B26D9042B0FD9082B1ED9EC
:10486000102B94BF862387230B6013601D4B0122FE
:104870001A7030BC70470B601360E7E784230B604D
:104880001360F3E700F58E200F490830212213232F
:104890002A60236002600B60D0E73922F7E78523A6
:1048A0000B601360E2E780230B601360DEE700BF5C
:1048B00000400740014007405407FF1F08B0034075
:1048C0000CB0034008B00B400CB00B40ED15FF1FBF
:1048D00020B0034020B00B405507FF1F24B0034019
:1048E00024B00B40EC15FF1F0A4A0B49136843F430
:1048F000805313600B7843B9084BC0221A70084BE1
:1049000080F30C0000B218807047044B80221A70AC
:10491000F5E700BF2C800440ED15FF1F21C00C40BF
:1049200000C00C400A4A0B49136843F4005313605B
:104930000B7843B9084BC0221A70084B80F30C0067
:1049400000B218807047044B80221A70F5E700BF50
:104950002C800440ED15FF1F21D00C4000D00C40EE
:10496000054A064B10781B78C0B2DBB2984238BFBC
:104970004030C01A704700BFF415FF1FF515FF1F28
:10498000F0B4384B1A7912F0300F2CD072B6997DF2
:1049900001F0FF0200293DD062B6334F3349387829
:1049A0000D78334E1C46C0B2EDB2431C402BE1796A
:1049B00028BF0023AB4202F1FF32C9B21CBFF15441
:1049C000184612F0FF02F0D12A4B1B68C2B23A70AF
:1049D0004BB1A84236BFC5F14005401B40192728FE
:1049E000C4BF01221A701F49CA78D2B2150616D464
:1049F00052060DD51B4B1B795B0609D51E4B1F4973
:104A00001B6800220A7003B11A70164B3C22DA7040
:104A1000F0BC70474022D9795A7462B6E3E70B794B
:104A20001C06E5D5164B174E1C783378E4B2DBB282
:104A30009C420ED0144D01E0A3420AD00133402B1A
:104A400028BF00230879E85CC0B2C871087D072838
:104A5000F2D9DBB2034933700B79180644BF7C23CB
:104A6000CB70C5E700A00640F415FF1FF515FF1F2A
:104A70003816FF1FF015FF1F7C16FF1F7816FF1F4B
:104A80008016FF1F7916FF1FF815FF1F054A064BFA
:104A900010781B78C0B2DBB2984238BF4030C01AE1
:104AA000704700BFF416FF1F8916FF1FF0B4384B84
:104AB0001A7912F0300F2CD072B6997D01F0FF02F6
:104AC00000293DD062B6334F334938780D78334EE4
:104AD0001C46C0B2EDB2431C402BE17928BF002335
:104AE000AB4202F1FF32C9B21CBFF154184612F0BA
:104AF000FF02F0D12A4B1B68C2B23A704BB1A842F8
:104B000036BFC5F14005401B40192728C4BF01220C
:104B10001A701F49CA78D2B2150616D452060DD59E
:104B20001B4B1B795B0609D51E4B1F491B680022D6
:104B30000A7003B11A70164B3C22DA70F0BC704751
:104B40004022D9795A7462B6E3E70B791C06E5D5A1
:104B5000164B174E1C783378E4B2DBB29C420ED071
:104B6000144D01E0A3420AD00133282B28BF0023B3
:104B70000879E85CC0B2C871087D0728F2D9DBB2B9
:104B8000034933700B79180644BF7C23CB70C5E70B
:104B900000B00640F416FF1F8916FF1FB416FF1F52
:104BA0008416FF1FF816FF1F8816FF1FFC16FF1F35
:104BB000F516FF1F8C16FF1F054A064B10781B7851
:104BC000C0B2DBB2984238BF4030C01A704700BF55
:104BD0000417FF1F0517FF1F30B42B4B1A799406DB
:104BE0001FD52A48DA790378294901333F2B097800
:104BF000C8BF00238B42D2B203D0264CD9B2E254B4
:104C00000170254A116861B1244A1278D2B29342E8
:104C100036BFC2F140029B1A9B18272BC4BF012349
:104C20000B70194AD378DBB2180611D45A060DD589
:104C3000154B1B795B0609D5194B1A491B680022D5
:104C40000A7003B11A70104B2C22DA7030BC704716
:104C500011790906EAD5144910480C780178C9B2CF
:104C60008C420DD04A1C272A84BF00210A460F4DD2
:104C7000054C98BFD1B2AA5CD2B2E2710170D5E7FF
:104C80006C21D170D2E700BF00C006400417FF1F9F
:104C90000517FF1F3017FF1F0017FF1F7117FF1F9A
:104CA0007417FF1F7017FF1F7817FF1F0817FF1FCC
:104CB000054A064B10781B78C0B2DBB2984238BF69
:104CC0004030C01A704700BF8017FF1F8117FF1FB9
:104CD00030B42B4B1A7994061FD52A48DA79037819
:104CE000294901333F2B0978C8BF00238B42D2B238
:104CF00003D0264CD9B2E2540170254A116861B143
:104D0000244A1278D2B2934236BFC2F140029B1AB3
:104D10009B18272BC4BF01230B70194AD378DBB231
:104D2000180611D45A060DD5154B1B795B0609D50B
:104D3000194B1A491B6800220A7003B11A70104BF4
:104D40002C22DA7030BC704711790906EAD5144973
:104D500010480C780178C9B28C420DD04A1C272A21
:104D600084BF00210A460F4D054C98BFD1B2AA5C02
:104D7000D2B2E2710170D5E76C21D170D2E700BFE9
:104D800000D006408017FF1F8117FF1FAC17FF1FC1
:104D90007C17FF1FED17FF1FF017FF1FEC17FF1FFA
:104DA000F417FF1F8417FF1F054A064B10781B7866
:104DB000C0B2DBB2984238BF4030C01A704700BF63
:104DC000FC17FF1FFD17FF1F30B42B4B1A799406F9
:104DD0001FD52A48DA790378294901333F2B09780E
:104DE000C8BF00238B42D2B203D0264CD9B2E254C2
:104DF0000170254A116861B1244A1278D2B29342F7
:104E000036BFC2F140029B1A9B18272BC4BF012357
:104E10000B70194AD378DBB2180611D45A060DD597
:104E2000154B1B795B0609D5194B1A491B680022E3
:104E30000A7003B11A70104B2C22DA7030BC704724
:104E400011790906EAD5144910480C780178C9B2DD
:104E50008C420DD04A1C272A84BF00210A460F4DE0
:104E6000054C98BFD1B2AA5CD2B2E2710170D5E70D
:104E70006C21D170D2E700BF00A00E40FC17FF1FCD
:104E8000FD17FF1F2818FF1FF817FF1F6918FF1FC6
:104E90006C18FF1F6818FF1F7018FF1F0018FF1FF6
:104EA000054A064B10781B78C0B2DBB2984238BF77
:104EB0004030C01A704700BF7818FF1F7918FF1FD5
:104EC00030B42C4B5A6894021FD52B48DA6803780B
:104ED0002A4901333F2B0978C8BF00238B4204D0F5
:104EE000274CD2B2D9B2E2540170264A116861B19E
:104EF000254A1278D2B2934236BFC2F140029B1AC1
:104F00009B18272BC4BF01230B701A4A9368180201
:104F100002D55268110211D45A020DD5154B5B68A7
:104F20005B0209D5194B1A491B6800220A7003B1AC
:104F30001A70184B00221A6030BC7047164A12498A
:104F400010780A78D2B290420DD00132272A84BF5D
:104F500000200246114D074C98BFD0B2AA5CD2B2D5
:104F6000E2600870D8E70E480A4A00240121046074
:104F70001160D1E700400C407818FF1F7918FF1F1F
:104F8000A418FF1F7418FF1FE518FF1FE818FF1F64
:104F9000E418FF1F58018843EC18FF1F7C18FF1FFF
:104FA0005C01884310B584B072B6FDF787FE184ADD
:104FB000184B19491160702280211A701A46197015
:104FC00013781B06FCD5154B1C68FDF791FE62B6E5
:104FD000134B9C429CBF04EB840464002046114C9C
:104FE00001A90A22FDF79EFE01A92046002311F81F
:104FF000012B01333AB10A2B20F8022FF7D11623E7
:10500000237004B010BD5B00DBB2237004B010BD90
:105010000400024000000240000007410C00024072
:105020007F969800E407FF1F0B460146184600F0E4
:10503000DDB800BFF0B4464B464A986B5C6B017913
:105040001170454922790A701A6B00790870002A9C
:1050500046D05968C9688A423ED82168CC8B24045E
:1050600002F1FF3065D4C0F30E00C883C88B80B254
:10507000C882996B0968C88B000452D4C2F30E0031
:10508000C883C88B002480B212F1FF32C88218BFD7
:1050900001221C63596B2E4809680D6800F12C042D
:1050A000A54236D00068C46814F0804F0C680D68C3
:1050B00015BF248824780235013544F000440D6082
:1050C0004463996B254B09791970214912B14A6BD8
:1050D00012791A70F0BC7047521A1A630122D9E78C
:1050E000D86B196805681E4C0A63CC62CC682D68C1
:1050F0001C4E24F080440327B542CC6083F82D7009
:105100001FD1037F4260022BC2601ED0F0BCFFF7AC
:1051100075BA016890F82C00CC6840F000404863F4
:10512000CFE7CC8BC2F3080004F47E442043C8834D
:10513000A7E7CC8BC0F3080004F47E442043C88367
:1051400094E72B461146F0BC18478368F0BC18471B
:10515000FC07FF1F1F8000401C8000401B80004098
:1051600000000FFF7D46000090E80C00F0B41C68C2
:1051700059682568164F174E29432160164D174967
:105180001760D66015611160417A154A5C180C31C0
:1051900094F82C4053F8215002EBC40149680D608B
:1051A000017A5C1803EB8101247ECD6902EBC40116
:1051B00049680D60817A581803EB810390F840002C
:1051C000596C02EBC002F0BC53681960704700BF15
:1051D00001401F00011000380110007800001F80FE
:1051E000F86E00000A22002101F014BC13460A46A2
:1051F0000146022001F032BC014B1868704700BF25
:10520000680CFF1F70B50F4E0F4D761BB61018BF00
:10521000002405D0013455F8043B9847A642F9D143
:105220000A4E0B4D761B02F07DF8B61018BF002415
:1052300006D0013455F8043B9847A642F9D170BD19
:1052400070BD00BF30730000307300004473000075
:105250003073000010B5044600F016F82044407882
:1052600000F0080010BD00BF034A044B1268506BE9
:10527000002808BF18467047680CFF1F6C0CFF1F02
:10528000D0F8EC00704700BF08B5034B1868FFF773
:10529000EBFFD0F8EC0008BD680CFF1F024B014685
:1052A000186800F00BB800BF680CFF1F024B0146E6
:1052B000186801F097BC00BF680CFF1F2DE9F04F84
:1052C00001F10B05162D83B0064640F29F8035F0A4
:1052D000070500F1BF80A94200F2BC8000F0A0FBEE
:1052E000B5F5FC7FC0F09C826B0A00F0BA80042BFD
:1052F00000F28381A80900F1390E4FEA4E033830DD
:10530000C44F07EB8303A3F108015C68A14207D1F6
:10531000ACE0002A80F2AC80E468A14200F0A680F4
:10532000636823F003035A1B0F2AF2DDB9493C6975
:1053300001F1080E744500F0B381636823F00303A4
:105340005A1B0F2A00F39981002AC1F814E0C1F812
:1053500010E080F29E80B3F5007F80F06781DB086B
:1053600003F1010C01229B1002FA03F34A6851F881
:105370003C80C4F8088001EBCC091A43A9F108036A
:10538000E3604A6041F83C40C8F80C4083100124B7
:105390009C40944200F28A80144206D120F003001F
:1053A0006400144200F10400FAD007EBC009CC46B7
:1053B0008046DCF80C108C4507D173E1002A80F29E
:1053C0008181C9688C4500F06D814B6823F003032F
:1053D0005A1B0F2AF2DD0C46D1F80CC054F8088F86
:1053E0004B1945F001054D6042F00101C8F80CC0B1
:1053F0003046CCF808807B613B61C3F80CE0C3F811
:1054000008E059609A5000F00DFB1FE0102921D8E8
:1054100000F006FB1025062302207E4F07EB8303D6
:10542000A3F108025C68944200F045816368E1687A
:10543000A56823F00303234430465A68E96042F02C
:1054400001028D605A6000F0EDFA0834204603B086
:10545000BDE8F08F00240C232046336003B0BDE884
:10546000F08F80234FF0400E3F2049E770465DE704
:105470002344E1685A68A56842F00102E9603046B9
:105480008D605A6000F0CEFA0834204603B0BDE8C3
:10549000F08F234430465A6842F001025A6000F00F
:1054A000C1FA0834204603B0BDE8F08FBC686368D9
:1054B00023F00308A84504D3C5EB08030F2B00F322
:1054C0008C80554BDFF860911A68D9F800300133B1
:1054D0002A4404EB080A00F0608102F580520F3282
:1054E00022F47F6222F00F0211463046019200F052
:1054F00093FCB0F1FF3F8346019A00F0588182454A
:1055000000F2FC80454B1968DA451144196000F03F
:105510005381D9F80000DFF810E101301BBFCAEB5E
:105520000B0A5144CEF800B019601BF0070100F0DF
:105530001781C1F10800C1F58051834408315A44F4
:10554000C2F30B02C2EB010949463046019300F059
:1055500063FC431C019B00F03F81CBEB00024A44FB
:1055600042F001021968C7F808B04944BC42CBF8C0
:1055700004201960DFF8A49016D0B8F10F0F40F2A4
:10558000FD806268A8F10C0323F00703E01802F025
:1055900001024FF0050E1A430F2B6260C0F804E0C1
:1055A000C0F808E000F21C811D4BBC681A689142EB
:1055B00088BF19601B4B1A689142626888BF1960E6
:1055C00022F003029542A2EB050301D80F2B04DC65
:1055D000304600F027FA002438E7621943F001034F
:1055E00045F0010565603046BA60536000F01AFA74
:1055F0000834204603B0BDE8F08F142B71D9542B2A
:1056000000F2A480280B00F16F0E4FEA4E036E30BB
:1056100076E600BFD80DFF1FF818FF1FFC18FF1F0C
:10562000F418FF1FF018FF1FE411FF1F5A0A042A85
:105630005ED9142A00F2B38002F15C0149005B32AA
:1056400007EB810C57F82110DFF8DC81ACF1080C76
:105650008C4500F088804A6822F00302934202D20F
:1056600089688C45F7D1D1F80CC07A68C4F80CC0B1
:10567000A160CCF80840CC6088E6631942F00107CD
:1056800045F00105656030464B610B61C3F80CE0E5
:10569000C3F808E05F609A50083400F0C3F9D5E61B
:1056A0004A6873E608F1010818F0030F0CF1080CC2
:1056B0007FF47FAE30E0DC68A34208BF02303FF4E5
:1056C00035AEB3E60B440C465A68C96854F8085F17
:1056D00042F001025A603046E9608D6000F0A2F9A4
:1056E000B4E603F15C0E03F15B004FEA4E0307E6FC
:1056F0009A0902F1390149003832A1E7BC424A4B0C
:105700003FF400AF9C68626822F003025AE759F840
:105710000839994540F0828010F0030F00F1FF3006
:10572000F5D17B6823EA04037B6064009C423FF66A
:10573000BDAE002C3FF4BAAE1C4240467FF435AEFD
:1057400064001C4200F10400FAD02EE6B3F5AA7FF3
:1057500018D8E80B00F1780E4FEA4E037730CFE50A
:105760004FF48051EBE60121D8F80430921001FA91
:1057700002F21A43C8F80420614677E70123CBF808
:10578000043025E740F25452934220D8A80C00F18F
:105790007D0E4FEA4E037C30B2E51032A4E6542A67
:1057A00026D81A0B02F16F0149006E3248E7BC6837
:1057B000626822F0030205E7CAF30B0000287FF4B9
:1057C000A8AE4244BB6842F001025A60ECE6FE23F8
:1057D0004FF07F0E7E2093E501224FF00009C1E6D5
:1057E00004F10801304601F0FDF9D9F80010DBE6BC
:1057F000B2F5AA7F05D8DA0B02F1780149007732B9
:105800001EE740F254518A4205D89A0C02F17D01FC
:1058100049007C3214E7FE217E2211E77B6884E791
:10582000E808431C5B00F8E5D80DFF1F82B049B1C2
:105830005AB16BB113780B601278101C18BF01209D
:1058400002B0704701A9002AF3D1104602B0704798
:105850006FF00100F4E700BF032A70B426D940EAD4
:1058600001039B0711D004780D78AC4222D1024489
:10587000431C05E013F8014B11F8015FAC4219D14C
:105880009342F7D1002070BC70470C4603461E6857
:105890002568AE421846214603F1040304F10404CE
:1058A000E1D1043A032A18462146F0D8002ADAD179
:1058B0001046E8E7601B70BC704700BF8842F0B537
:1058C0000DD98B1898420AD28118002A51D09A1A01
:1058D00013F8014D01F8014D9342F9D1F0BD0F2AA3
:1058E00048D941EA00039B0746D100F1100401F1B9
:1058F0001003154653F8106C44F8106C53F80C6CF8
:1059000044F80C6C53F8086C44F8086C103D53F8DC
:10591000046C44F8046C0F2D03F1100304F110041F
:10592000E8D8A2F1100323F00F0302F00F0E10339A
:10593000BEF1030F1944034421D91E1F0D467446BE
:10594000043C55F8047B46F8047F032CF8D8AEF1EC
:10595000040424F0030404342344214402F0030229
:1059600062B1013B0A4411F8014B03F8014F8A422E
:10597000F9D1F0BD0346F3E70346F2E7F0BD724606
:10598000EEE700BF70B4840746D0541E002A41D011
:10599000CDB2034602E0621EE4B3144603F8015B95
:1059A0009A07F8D1032C2ED9CDB245EA05250F2C44
:1059B00045EA054519D903F110022646103E0F2E7F
:1059C00042F8105C42F80C5C42F8085C42F8045C57
:1059D00002F11002F2D8A4F1100222F00F0204F03A
:1059E0000F041032032C13440DD91E462246043AEC
:1059F000032A46F8045BFAD8221F22F0030204327D
:105A0000134404F003042CB1C9B21C4403F8011B75
:105A1000A342FBD170BC704714460346C2E700BFE7
:105A2000704700BF704700BF024B0A460146186826
:105A300000F002B8680CFF1F2DE9F04F174683B045
:105A4000002900F0C1800E46814607F10B05FFF7E3
:105A5000E7FF56F804EC162D2EF00304A6F1080813
:105A600040D810221546AF4241D8944275DAC94B4E
:105A7000996808EB04008842416800F0D98021F061
:105A8000010303445B68DB077DD51EF0010F35D0B1
:105A900039464846FFF712FC0746E0B156F8043C89
:105AA00023F001034344A0F108029A4200F044812C
:105AB000221F242A00F23181132A00F204810346B6
:105AC0003246116819605168596092689A6031468F
:105AD000484601F087F84846FFF7A4FF384603B070
